:020000040800F2
:10000000005000202D2700087526000879260008DA
:100010009D2600089F260008A12600080000000079
:100020000000000000000000000000004160000827
:10003000A326000800000000D16000081561000838
:100040007527000875270008752700087527000820
:100050007527000875270008752700087527000810
:10006000752700087527000875270008A5260008D1
:1000700075270008752700087527000875270008F0
:10008000B1260008752700087527000875270008A5
:1000900075270008752700087527000875270008D0
:1000A00075270008752700087527000875270008C0
:1000B0007527000875270008BD2600087527000869
:1000C00075270008752700087527000875270008A0
:1000D0007527000875270008752700087527000890
:1000E000C9260008752700087527000800000000D1
:1000F0000000000000000000000000000000000000
:0C01000000000000000000005FF808F1A3
:1001100010B5054C237833B9044B13B10448AFF341
:1001200000800123237010BD740000200000000037
:100130002066000808B5034B1BB103490348AFF321
:10014000008008BD00000000780000202066000844
:1001500081F0004102E000BF83F0004330B54FEA78
:1001600041044FEA430594EA050F08BF90EA020FE5
:100170001FBF54EA000C55EA020C7FEA645C7FEA78
:10018000655C00F0E2804FEA5454D4EB5555B8BF9B
:100190006D420CDD2C4480EA020281EA030382EA0C
:1001A000000083EA010180EA020281EA0303362D9E
:1001B00088BF30BD11F0004F4FEA01314FF4801C71
:1001C0004CEA113102D0404261EB410113F0004F83
:1001D0004FEA03334CEA133302D0524263EB43033A
:1001E00094EA050F00F0A780A4F10104D5F1200ED8
:1001F0000DDB02FA0EFC22FA05F2801841F1000133
:1002000003FA0EF2801843FA05F359410EE0A5F106
:1002100020050EF1200E012A03FA0EFC28BF4CF037
:10022000020C43FA05F3C01851EBE37101F00045ED
:1002300007D54FF0000EDCF1000C7EEB00006EEBFA
:100240000101B1F5801F1BD3B1F5001F0CD3490884
:100250005FEA30004FEA3C0C04F101044FEA4452DB
:1002600012F5800F80F09A80BCF1004F08BF5FEA62
:10027000500C50F1000041EB045141EA050130BD42
:100280005FEA4C0C404141EB010111F4801FA4F1E5
:100290000104E9D191F0000F04BF01460020B1FA3A
:1002A00081F308BF2033A3F10B03B3F120020CDA72
:1002B0000C3208DD02F1140CC2F10C0201FA0CF050
:1002C00021FA02F10CE002F11402D8BFC2F1200CB5
:1002D00001FA02F120FA0CFCDCBF41EA0C0190406B
:1002E000E41AA2BF01EB0451294330BD6FEA0404B4
:1002F0001F3C1CDA0C340EDC04F11404C4F120029F
:1003000020FA04F001FA02F340EA030021FA04F3B0
:1003100045EA030130BDC4F10C04C4F1200220FA07
:1003200002F001FA04F340EA0300294630BD21FA45
:1003300004F0294630BD94F0000F83F4801306BF0B
:1003400081F480110134013D4EE77FEA645C18BFFF
:100350007FEA655C29D094EA050F08BF90EA020F96
:1003600005D054EA000C04BF1946104630BD91EA8E
:10037000030F1EBF0021002030BD5FEA545C05D191
:100380004000494128BF41F0004130BD14F58004D0
:100390003CBF01F5801130BD01F0004545F0FE4144
:1003A00041F470014FF0000030BD7FEA645C1ABF79
:1003B000194610467FEA655C1CBF0B46024650EAB0
:1003C000013406BF52EA033591EA030F41F40021DC
:1003D00030BD00BF90F0000F04BF0021704730B562
:1003E0004FF4806404F132044FF000054FF0000137
:1003F00050E700BF90F0000F04BF0021704730B5F8
:100400004FF4806404F1320410F0004548BF4042CC
:100410004FF000013EE700BF42004FEAE2014FEA21
:1004200031014FEA02701FBF12F07F4393F07F4FFC
:1004300081F06051704732F07F4208BF704793F0FF
:100440007F4F04BF41F40021704730B54FF4607412
:1004500001F0004521F000411CE700BF50EA010215
:1004600008BF704730B54FF000050AE050EA0102BE
:1004700008BF704730B511F0004502D5404261EB2E
:1004800041014FF4806404F132045FEA915C3FF46F
:10049000D8AE4FF003025FEADC0C18BF03325FEA0C
:1004A000DC0C18BF033202EBDC02C2F1200300FABD
:1004B00003FC20FA02F001FA03FE40EA0E0021FAE2
:1004C00002F11444BDE600BF70B54FF0FF0C4CF4D0
:1004D000E06C1CEA11541DBF1CEA135594EA0C0F82
:1004E00095EA0C0F00F0DEF82C4481EA030621EABD
:1004F0004C5123EA4C5350EA013518BF52EA0335F8
:1005000041F4801143F4801338D0A0FB02CE4FF0A9
:100510000005E1FB02E506F00042E0FB03E54FF0D9
:100520000006E1FB03569CF0000F18BF4EF0010ED1
:10053000A4F1FF04B6F5007F64F5407404D25FEACD
:100540004E0E6D4146EB060642EAC62141EA555180
:100550004FEAC52040EA5E504FEACE2EB4F1FD0CC2
:1005600088BFBCF5E06F1ED8BEF1004F08BF5FEA40
:10057000500E50F1000041EB045170BD06F00046F2
:1005800046EA010140EA020081EA0301B4EB5C049F
:10059000C2BFD4EB0C0541EA045170BD41F4801197
:1005A0004FF0000E013C00F3AB8014F1360FDEBFBC
:1005B000002001F0004170BDC4F10004203C35DA98
:1005C0000C341BDC04F11404C4F1200500FA05F31B
:1005D00020FA04F001FA05F240EA020001F00042BC
:1005E00021F0004110EBD37021FA04F642EB060132
:1005F0005EEA430E08BF20EAD37070BDC4F10C045C
:10060000C4F1200500FA04F320FA05F001FA04F21F
:1006100040EA020001F0004110EBD37041F100010B
:100620005EEA430E08BF20EAD37070BDC4F1200516
:1006300000FA05F24EEA020E20FA04F301FA05F27E
:1006400043EA020321FA04F001F0004121FA04F226
:1006500020EA020000EBD3705EEA430E08BF20EAF6
:10066000D37070BD94F0000F0FD101F00046400030
:1006700041EB010111F4801F08BF013CF7D041EAB2
:10068000060195F0000F18BF704703F000465200B6
:1006900043EB030313F4801F08BF013DF7D043EA87
:1006A0000603704794EA0C0F0CEA135518BF95EA3D
:1006B0000C0F0CD050EA410618BF52EA4306D1D1C4
:1006C00081EA030101F000414FF0000070BD50EAE3
:1006D000410606BF1046194652EA430619D094EA6D
:1006E0000C0F02D150EA013613D195EA0C0F05D157
:1006F00052EA03361CBF104619460AD181EA0301AB
:1007000001F0004141F0FE4141F470014FF0000062
:1007100070BD41F0FE4141F4780170BD70B54FF0FD
:10072000FF0C4CF4E06C1CEA11541DBF1CEA13557D
:1007300094EA0C0F95EA0C0F00F0A7F8A4EB05045F
:1007400081EA030E52EA03354FEA013100F0888056
:100750004FEA03334FF0805545EA131343EA12631F
:100760004FEA022245EA111545EA10654FEA0026D4
:100770000EF000419D4208BF964244F1FD0404F58D
:10078000407402D25B084FEA3202B61A65EB0305E9
:100790005B084FEA32024FF480104FF4002CB6EBA6
:1007A000020E75EB030E22BFB61A754640EA0C0026
:1007B0005B084FEA3202B6EB020E75EB030E22BF66
:1007C000B61A754640EA5C005B084FEA3202B6EBA7
:1007D000020E75EB030E22BFB61A754640EA9C0066
:1007E0005B084FEA3202B6EB020E75EB030E22BF36
:1007F000B61A754640EADC0055EA060E18D04FEAF4
:10080000051545EA16754FEA06164FEAC30343EA93
:1008100052734FEAC2025FEA1C1CC0D111F4801F60
:100820000BD141EA00014FF000004FF0004CB6E759
:1008300011F4801F04BF01430020B4F1FD0C88BFF8
:10084000BCF5E06F3FF6AFAEB5EB030C04BFB6EB03
:10085000020C5FEA500C50F1000041EB045170BDF6
:100860000EF0004E4EEA113114EB5C04C2BFD4EB23
:100870000C0541EA045170BD41F480114FF0000EA7
:10088000013C90E645EA060E8DE60CEA135594EA23
:100890000C0F08BF95EA0C0F3FF43BAF94EA0C0F26
:1008A0000AD150EA01347FF434AF95EA0C0F7FF49B
:1008B00025AF104619462CE795EA0C0F06D152EAEF
:1008C00003353FF4FDAE1046194622E750EA4106D3
:1008D00018BF52EA43067FF4C5AE50EA41047FF4E4
:1008E0000DAF52EA43057FF4EBAE12E74FEA410247
:1008F000B2F1E04324BFB3F5001CDCF1FE5C0DD97E
:1009000001F0004C4FEAC0024CEA5070B2F1004FC7
:1009100040EB830008BF20F00100704711F0804FCA
:1009200021D113F13872BCBF01F00040704741F48F
:1009300080114FEA5252C2F11802C2F1200C10FA93
:100940000CF320FA02F018BF40F001004FEAC12377
:100950004FEAD32303FA0CFC40EA0C0023FA02F31B
:100960004FEA4303CCE77FEA625307D150EA0133F1
:100970001EBF4FF0FE4040F44000704701F00040C1
:1009800040F0FE4040F40000704700BF80F000409F
:1009900002E000BF81F0004142001FBF5FEA410357
:1009A00092EA030F7FEA226C7FEA236C6AD04FEA57
:1009B0001262D2EB1363C1BFD2184140484041409C
:1009C000B8BF5B42192B88BF704710F0004F40F44E
:1009D000000020F07F4018BF404211F0004F41F46A
:1009E000000121F07F4118BF494292EA030F3FD036
:1009F000A2F1010241FA03FC10EB0C00C3F1200349
:100A000001FA03F100F0004302D5494260EB4000D7
:100A1000B0F5000F13D3B0F1807F06D340084FEA42
:100A2000310102F10102FE2A51D2B1F1004F40EB37
:100A3000C25008BF20F0010040EA0300704749009F
:100A400040EB000010F4000FA2F10102EDD1B0FA6A
:100A500080FCACF1080CB2EB0C0200FA0CF0AABF5F
:100A600000EBC25052421843BCBFD04018437047FD
:100A700092F0000F81F4000106BF80F40000013203
:100A8000013BB5E74FEA41037FEA226C18BF7FEADA
:100A9000236C21D092EA030F04D092F0000F08BF1C
:100AA0000846704790EA010F1CBF0020704712F003
:100AB0007F4F04D1400028BF40F00040704712F142
:100AC00000723CBF00F50000704700F0004343F0A7
:100AD000FE4040F4000070477FEA226216BF0846DD
:100AE0007FEA23630146420206BF5FEA412390EAA0
:100AF000010F40F4800070474FF0000304E000BF96
:100B000010F0004348BF40425FEA000C08BF704746
:100B100043F0964301464FF000001CE050EA01020A
:100B200008BF70474FF000030AE000BF50EA01021F
:100B300008BF704711F0004302D5404261EB41010C
:100B40005FEA010C02BF84460146002043F0B64331
:100B500008BFA3F18053A3F50003BCFA8CF2083A56
:100B6000A3EBC25310DB01FA02FC634400FA02FC5F
:100B7000C2F12002BCF1004F20FA02F243EB020066
:100B800008BF20F00100704702F1200201FA02FCC8
:100B9000C2F1200250EA4C0021FA02F243EB0200BB
:100BA00008BF20EADC7070474FF0FF0C1CEAD052FF
:100BB0001EBF1CEAD15392EA0C0F93EA0C0F6FD0C0
:100BC0001A4480EA010C400218BF5FEA41211ED09E
:100BD0004FF0006343EA501043EA5111A0FB01318A
:100BE0000CF00040B1F5000F3EBF490041EAD3715F
:100BF0005B0040EA010062F17F02FD2A1DD8B3F1DB
:100C0000004F40EBC25008BF20F00100704790F049
:100C1000000F0CF0004C08BF49024CEA502040EA9B
:100C200051207F3AC2BFD2F1FF0340EAC250704761
:100C300040F400004FF00003013A5DDC12F1190F9F
:100C4000DCBF00F000407047C2F10002410021FA11
:100C500002F1C2F1200200FA02FC5FEA310040F129
:100C6000000053EA4C0308BF20EADC70704792F0A2
:100C7000000F00F0004C02BF400010F4000F013ADA
:100C8000F9D040EA0C0093F0000F01F0004C02BFD5
:100C9000490011F4000F013BF9D041EA0C018FE744
:100CA0000CEAD15392EA0C0F18BF93EA0C0F0AD04A
:100CB00030F0004C18BF31F0004CD8D180EA010070
:100CC00000F00040704790F0000F17BF90F0004F09
:100CD000084691F0000F91F0004F14D092EA0C0FEB
:100CE00001D142020FD193EA0C0F03D14B0218BF7E
:100CF000084608D180EA010000F0004040F0FE40C4
:100D000040F40000704740F0FE4040F4400070475F
:100D10004FF0FF0C1CEAD0521EBF1CEAD15392EADE
:100D20000C0F93EA0C0F69D0A2EB030280EA010CCE
:100D300049024FEA402037D04FF0805343EA111167
:100D400043EA10130CF000408B4238BF5B0042F1C5
:100D50007D024FF4000C8B4224BF5B1A40EA0C006A
:100D6000B3EB510F24BFA3EB510340EA5C00B3EB9C
:100D7000910F24BFA3EB910340EA9C00B3EBD10F8A
:100D800024BFA3EBD10340EADC001B0118BF5FEADC
:100D90001C1CE0D1FD2A3FF650AF8B4240EBC25005
:100DA00008BF20F0010070470CF0004C4CEA5020C6
:100DB0007F32C2BFD2F1FF0340EAC250704740F415
:100DC00000004FF00003013A37E792F0000F00F007
:100DD000004C02BF400010F4000F013AF9D040EA85
:100DE0000C0093F0000F01F0004C02BF490011F419
:100DF000000F013BF9D041EA0C0195E70CEAD15311
:100E000092EA0C0F08D142027FF47DAF93EA0C0FF7
:100E10007FF470AF084676E793EA0C0F04D14B02DB
:100E20003FF44CAF08466EE730F0004C18BF31F08D
:100E3000004CCAD130F000427FF45CAF31F0004387
:100E40007FF43CAF5FE700BF4FF0FF3C06E000BF20
:100E50004FF0010C02E000BF4FF0010C4DF804CD43
:100E60004FEA40024FEA41037FEA226C18BF7FEA53
:100E7000236C11D001B052EA530C18BF90EA010F55
:100E800058BFB2EB030088BFC81738BF6FEAE170E4
:100E900018BF40F0010070477FEA226C02D15FEA80
:100EA000402C05D17FEA236CE4D15FEA412CE1D0EC
:100EB0005DF8040B704700BF844608466146FFE7B3
:100EC0000FB5FFF7C9FF002848BF10F1000F0FBD95
:100ED0004DF808EDFFF7F4FF0CBF012000205DF88E
:100EE00008FB00BF4DF808EDFFF7EAFF34BF012013
:100EF00000205DF808FB00BF4DF808EDFFF7E0FFAC
:100F000094BF012000205DF808FB00BF4DF808EDFC
:100F1000FFF7D2FF94BF012000205DF808FB00BF5F
:100F20004DF808EDFFF7C8FF34BF012000205DF841
:100F300008FB00BF42000ED2B2F1FE4F0BD34FF0C0
:100F40009E03B3EB126209D44FEA002343F000433F
:100F500023FA02F070474FF00000704712F1610F62
:100F600001D1420202D14FF0FF3070474FF0000034
:100F7000704700BF10B5054C204601F043FE2046E7
:100F8000BDE810400422024901F00CBD50170020BA
:100F9000A4160020064B5B883B2B03D80122054B8F
:100FA0005A707047642BFCD9024B0022F8E700BF4F
:100FB000A41600200C180020F7B5144D2E4600F0A2
:100FC000AFFF00246427FF23A0B200971A461946FA
:100FD000013400F075FF222CF5D1286803F070FD74
:100FE00000F092FF686803F06BFD002400F098FFAA
:100FF0000023A0B21A46FF21013400F077FF222C13
:10100000F6D13068400003F05BFDD8E71C180020E3
:1010100040F2DC524FF47A6108B5074B0748C3E948
:1010200000214FF4AF52064B00215A60054A03F0ED
:101030009BFC054B586108BD1C180020B90F000827
:1010400010180020586600082C1800202DE9FF41D8
:1010500000242746184EDFF8648056F82400A500C7
:10106000F0B103F0DDFC04281AD0A85903F000FD0C
:10107000052CAF51A3B219D1002101A800F080FEC8
:101080009DF80730002588F8083001F07BF800F063
:1010900047FFA8B20021013500F0FEFE222DF8D155
:1010A0000134062CD9D104B0BDE8F081042BF7D16E
:1010B00000F02AFFF4E700BF2C18002010180020D1
:1010C00070B5374C657A042D1DD8013DFFF7BEFF82
:1010D000344E00F025FF344B032D03D8DFE805F034
:1010E0001425384714220025C3E90025C8229A6038
:1010F0004FF47A73636000F007FF2C4A29462C48AE
:1011000003F032FC306070BD642200259A60C3E9B0
:1011100000554FF4E163636000F0F6FE254A29466E
:10112000254803F021FC7060EDE7192240F2DC5500
:10113000C3E9002500259D6040F6AC53636000F0D4
:10114000E3FE1E4A29461E4803F00EFCB060DAE7B3
:101150004B2264200021C3E9002099604FF47A7388
:10116000184A1948636003F0FFFBF060CBE74FF4C7
:101170007A72502162604FF4FA72C3E9001240F6AD
:10118000B8329A604CF6C8029A81C8229A7300F06D
:10119000BBFE0E4A00210E4803F0E6FB3061B2E7C9
:1011A000101800202C1800201C180020A066000831
:1011B000A51700087C660008791600080C6700086F
:1011C000C5160008E866000885130008C466000814
:1011D0009D150008052208B509494B7A0133DBB299
:1011E000B3FBF2F202EB82029B1A4B7200F0CAFFD1
:1011F0000022044B1A70BDE80840FFF761BF00BF32
:10120000101800200C1800202DE9F843164D174F38
:101210002E4603F093FB002481461FFA84F84A46C9
:101220000023404600F01CFE01344946404600F0D1
:10123000B1FE222CF1D12B78012B01D1FFF7CAFF8F
:10124000B378012B05D17B691BB9FFF7FFFEFFF7D0
:10125000DFFEB3781BB97B690BB1FFF731FF0120CB
:1012600003F02EFCD5E700BF0C1800202C1800203E
:1012700070B50025084E56F82500ACB230B103F029
:10128000CFFB042802D0601C80B270BD0135062D52
:10129000F1D10020F9E700BF2C1800202DE9F04122
:1012A000264E274FB47A012C3FD1FFF773FE97F8F3
:1012B0000180B8F1000F2ED1FFF7DAFF40B1FFF740
:1012C000D7FF062804D0FFF7C1FE454600F01CFEFC
:1012D0000024E0B200F04AFB01340A2003F0F0FBE6
:1012E000FFF758FE652CF4D14FF47A7003F0E8FB59
:1012F0006420C4B2204600F039FB0A2003F0E0FB72
:10130000FFF748FE601E40B2431CF2D14FF47A70E2
:1013100003F0D6FBC6E7322000F028FBFFF7A8FF5A
:1013200008B9FFF7CDFE2546F0E7012D01D0FFF704
:10133000C7FE002000F01AFB0125E7E71018002087
:101340000C18002030B54FF44074B0FBF4F505FBE9
:101350001400FF2806D8C0B20870C04310700022E5
:101360001A7030BDB0F5007F06D2C0B2C4430C7015
:10137000002111701870F4E70024C0B20C701070D6
:10138000C043F7E77FB5104D002416200DF10F0381
:1013900000FB04600DF10E020DF10D01FFF7D2FF0D
:1013A00068689DF80F3000909DF80E20A0B29DF85F
:1013B0000D10013400F0CAFD232CE6D16868163602
:1013C0000C3003F07DFBDFE71C1800202DE9F74F00
:1013D000414D1C4695F9003080460F461646019552
:1013E000DFF8F8B0DFF8F8A0DFF8F890002B2DD187
:1013F00065B28BF8005005F06BF8C10749BF9BF848
:1014000000309BF900305B425BB28BF800308AF809
:10141000005005F05DF8C20749BF9AF800309AF90C
:1014200000305B425BB28AF8003089F8005005F06A
:101430004FF8C30749BF99F8003099F900305B4273
:101440005BB289F800300123019A13709BF90020E8
:1014500061428A4203D198F80030A34207D8A242E1
:1014600032D198F80000C4F1FF0398422CDA98F8C2
:101470000030134488F8003001239AF9002091428B
:1014800002D13878A04207D8944209D197F800C019
:10149000C4F1FF00844503DA3B7813443B70012319
:1014A00099F90020914202D13178A14206D89442A4
:1014B0000CD13078C2F1FF01884207DA33781A4440
:1014C000327003B0BDE8F08F0023D6E7002BF8D1CF
:1014D000019A1370F5E700BF9000002093000020F0
:1014E000920000209100002070B5154606460C467B
:1014F00004F0EEFF642390FBF3F202FB13000028DC
:1015000012DC04F0E5FF642390FBF3F202FB13000E
:1015100000280FDC04F0DCFF642390FBF3F202FBF5
:10152000130000280CDC70BD33782278013832704B
:101530002370E4E733782A78013832702B70E7E7BC
:101540002B78227801382A702370EAE770B51646A6
:101550000D46044604F0BCFF434203F07F0300F055
:101560007F0058BF58428038207004F0B1FF4342DA
:1015700003F07F0300F07F0058BF5842287004F04A
:10158000A7FF322390FBF3F202FB130029463070D1
:1015900032462046BDE87040FFF7A6BF2DE9FF4167
:1015A000214E00F0BDFC00243546DFF88080A7B254
:1015B000B37B727B317B384600F098FC013498F89D
:1015C0000810384600F068FC222CF0D104F080FFAF
:1015D0000DF10F0206460DF10E010DF10D00FFF7A2
:1015E000B5FF222396FBF3F403FB1464A4B29DF829
:1015F0000F309DF80E209DF80D10204600F076FC6F
:10160000A868AB7B6A7B297B0090204600F09EFC9B
:1016100004F05EFF6B68B0FBF3F202FB1300C8300E
:1016200003F04EFAD2E700BF1C180020101800206B
:101630002DE9F34799460F4B0A9C90461A7A6400AD
:1016400006460F46B4FBF2F402259A469AF8083093
:10165000AB4202D202B0BDE8F087EBB20093424643
:101660004B463946304600F02BFC204603F028FA62
:101670000235EBE71018002030B5114D85B022245B
:10168000E30707D40DF10F020DF10E010DF10D006E
:10169000FFF75CFFA8689DF80F309DF80E209DF8BD
:1016A0000D100090A0B2FFF7C3FF286803F008FAFE
:1016B00014F1FF34E4D2686803F002FADFE700BFF8
:1016C0001C1800202DE9FF4101251827284E04F0A1
:1016D000FFFE90FBF7F44FF0130804FB170404F02F
:1016E000F7FE90FBF8F303FB1808C5F10105EDB216
:1016F00005340DF10F020DF10E010DF10D00A4B234
:1017000008F10508FFF722FFD5B9212C03DD706829
:1017100003F0D6F9DBE7B8F1000FF8DDB0689DF80B
:101720000F309DF80E209DF80D100090A0B2FFF72D
:101730007FFF306803F0C4F908F1FF380134E4E7B3
:10174000A8EB040808EB0403002BE0DDB0689DF86B
:101750000F309DF80E209DF80D100090A0B2FFF7FD
:1017600067FF306803F0ACF914F1FF34CFD3E9E739
:101770001C180020F8B50A4D49002E7A0746B1FB27
:10178000F6F602242B7AA34200D2F8BDE1B2384625
:1017900000F082FB304603F093F90234F2E700BF19
:1017A0001018002073B50DF107020DF106010DF1BF
:1017B0000500FFF7CBFE114D2224A6B29DF807309D
:1017C0009DF806209DF80510304600F08FFBA968B3
:1017D0003046FFF7CFFF286803F072F90A230DF1B6
:1017E00007020DF106010DF10500FFF7EFFD14F101
:1017F000FF34E2D2686803F063F9DDE71C180020CB
:101800000B4B0C4A4FF480515A605A625A614FF4A4
:10181000006219811A834FF48061012219851A70C0
:101820005A701A745A7483F8202083F82120704764
:10183000C41C002000080140002870B5174C4FEA76
:10184000001508D12378A3B90122154B1A70625DE7
:1018500063195A7015E0022814D194F82020104919
:10186000B2FA82F3012A4FEA53138B70EFD100F0E2
:1018700089FC635D6619012B737002D103F05EF879
:10188000F06070BD0128F4D1237C002BF1D1054A12
:10189000937AC3F101039372E9E700BFC41C0020EF
:1018A0000C18002010180020084B1A89824208D01A
:1018B0001A8B824207D01B8D83420CBF022000206E
:1018C0007047002070470120704700BFC41C0020F3
:1018D0000A4B000110B51C18185C60B96378012B25
:1018E00008D103F02BF8E36803F59673834294BFA5
:1018F0000020012010BD0020FCE700BFC41C002018
:1019000070B5FFF7D1FF094E050173190446198917
:10191000586801F015FC70552046FFF7D9FF20B933
:101920002046BDE87040FFF787BF70BDC41C002093
:1019300008B500F043FCFFF763FF00F009F800F082
:10194000C9FBFFF717FBBDE80840FFF7B9BB000074
:101950000021044B04489980186099710368596309
:1019600002F094BEDC190020C417002064280FD8B0
:10197000084B9A881B681B680AB958637047042A89
:1019800001D198637047082A01D1D8637047186461
:10199000704700BFDC19002030B595B0202200212F
:1019A0000BA804F08CFD142210250DEB0200002181
:1019B00004F085FD2A46002101A804F080FD0123E2
:1019C0000224CDE90E354FF460130AA813930A944C
:1019D000119401F0CDFB0F234FF48062CDE9053463
:1019E0000023214605A8CDE90732099301F098FDAF
:1019F0004FF4404301A80194039301F06BFE15B02E
:101A000030BD0000102600242DE980484FF4805896
:101A100001274FF0020A99B0984D00F0ADFEFFF794
:101A2000BBFF3246002110A804F049FDAB6900223B
:101A300043F00403AB61AB694FF4805103F004033E
:101A40000193019BAB698E4843F00803AB61AB691E
:101A50004FF0600903F008030293029B01F076FB4C
:101A600010A98748CDE91087CDE9124A01F088FA1C
:101A70004FF4E052834B10A98348CDE9102312970D
:101A800001F07EFA22460621282001F035F92820AF
:101A900001F066F96B6922463B436B616B69062175
:101AA0003B4000930B20009B01F026F90B2001F036
:101AB00057F922460721304601F01EF9304601F061
:101AC0004FF93246214605A804F0F9FC1C222146B4
:101AD00009A8CDE9034404F0F2FC2022214610A815
:101AE00004F0EDFC4FF4F073684D69492846C5E9F0
:101AF00000136423AC60C5E90334C5E9054402F072
:101B0000E9FB05A92846CDF8148002F0CEFC284652
:101B100002F00CFC03A92846CDE9034402F078FE4C
:101B2000224609A92846CDE90994CDE90B44CDE91F
:101B30000D440F9402F052FC4FF4005310A92846B4
:101B40001593CDE91044CDE912441494179402F092
:101B500091FE284600F018FD4E4D4F4B4FF0040B00
:101B60002B604FF48073AB604FF4602328462F73D3
:101B7000EB612C756C60C5F810B0CDE9104412947F
:101B800000F0C0FF072310A92846CDE910A7129343
:101B900000F052FE082310A92846CDE9103A00F0C3
:101BA0004BFE032310A928461193109600F044FE23
:101BB000112310A92846CDE9103B00F03DFE4FF45B
:101BC00082733648364D4FF40077C0E9005328231E
:101BD000C0E906730A23C0E90244C362C0E90444B1
:101BE000C0E90844846201F0ECFE3246214609A8AF
:101BF00004F065FC1C22214610A82A4DCDE90544BD
:101C000004F05DFC284B2846C5E900345023C5E9A3
:101C100003348023AC60AB6102F05CFB09A9284669
:101C2000CDF8248002F041FC284602F07FFB05A994
:101C30002846CDE9054402F0EBFD224610A92846CE
:101C4000CDE910941294149402F0C8FB284600F0D9
:101C50009BFCFFF76DFE02F035FE144A2146144846
:101C600002F082FE134B144A18602146134802F01A
:101C70007BFE134B186002F041FEFEE700100240AD
:101C8000000C01400000311000080140C417002082
:101C9000002C01405017002000240140B016002005
:101CA000003800400817002000040040AC6700081E
:101CB0009D1200083C1D00208867000809120008DA
:101CC000381D00200268034B9A4201D100F066BD26
:101CD000704700BF00080040704700000C23F0B5BB
:101CE0004343264D1426EC18EA5CE3783C27534323
:101CF000642293FBF2F30C460722DBB243FA02FCA8
:101D00001CF0010F14BF2770267012F1FF3204F18E
:101D10000104F3D20C2202FB00525478D3786422DF
:101D2000634393FBF2F3142607223C27DBB243FA0A
:101D300002F414F0010FA1EB020414BFE773E67381
:101D400012F1FF32F3D20C2303FB00508278C378E8
:101D500014245343642293FBF2F33C250722DBB2A5
:101D600043FA02F010F0010FA1EB020014BFC57599
:101D7000C47512F1FF32F3D2F0BD00BF4418002049
:101D80002129034695BF0C200022054AC2709EBF40
:101D900000FB012107C983E807001846704700BF10
:101DA00044180020000000002DE9704343780578B6
:101DB0000446AB4238BF2B4685789D4238BF1D464E
:101DC00025B94FF6FF73FF2503808370E678304610
:101DD000FEF792FEFEF720FB1DA3D3E90023FEF7DA
:101DE00073FB00221C4BFEF799FC8046284689466F
:101DF000FEF782FEFEF710FB0B46024649464046C0
:101E0000FEF78CFCFEF772FD05462078FEF778FEA3
:101E10002946FEF7C9FEFFF78DF820706078FEF7BF
:101E20006FFE2946FEF7C0FEFFF784F86070A078C9
:101E3000FEF766FE2946FEF7B7FEFFF77BF8074B75
:101E4000A0705868B0FBF6F0E080BDE8708300BF7A
:101E50000000000000E06F40000059401018002012
:101E60002128F0B516461F4612D80C22094B02FB5A
:101E70000030037963B1C37853B100258468AF4261
:101E800008BFA64204D3013BC370C38833448360B8
:101E9000F0BD00BF4418002021280CD864290AD8BE
:101EA0000C22054B02FB0030C17021B1034B5B6873
:101EB000B3FBF1F1C18070474418002010180020D6
:101EC00070B421289DF80C500CD8642D0AD80C242D
:101ED0004443054E30193155C5704270837070BC53
:101EE000FFF762BF70BC704744180020212830B54E
:101EF00006D80C246043034D2C1829546270A3703B
:101F000030BD00BF441800200023012103481A18E7
:101F10000C33B3F5CC7F1171F9D170474418002010
:101F20000023F0B501210C271D461424054E064858
:101F300007FB0362157104FB03020133222B1174AA
:101F4000F6D1F0BD441800201C1A00202128F8B555
:101F50001AD80C26142545437043DFF834C00B4FC4
:101F60000CEB00061CF800007C19E0707078A37080
:101F70002071B07879556071627002F0DFFC069BC9
:101F8000A060E36000232374F8BD00BF1C1A00208A
:101F9000441800202DE9F04F212885B0064670D85E
:101FA0004FF0140808FB00F8374B03EB0804227CC1
:101FB000002A66D1A0680393081AFEF79DFD054626
:101FC000E068FEF799FD01462846FEF7A1FE0546AA
:101FD0002779607894F803B0C01BFEF791FD29467D
:101FE000FEF7E2FD81463846FEF78AFD0146484687
:101FF000FEF7D2FCFEF79EFF6779C2B2A07802928C
:10200000C01BFEF77DFD2946FEF7CEFD8146384612
:10201000FEF776FD01464846FEF7BEFCFEF78AFF56
:10202000C3B20193039B0C2713F808007743A0EB7E
:102030000B00FEF765FD2946FEF7B6FD80465846C3
:10204000FEF75EFD01464046FEF7A6FCFEF772FF76
:10205000DFF83CA0019B0AEB0709029A89F80230DD
:102060000A4B0AF8070089F801203046197AFFF771
:1020700013FF4FF07E512846FEF748FF08B10123B9
:10208000237405B0BDE8F08F1C1A00201018002042
:102090004418002070B50025022301260B4C284669
:1020A0002146638684F8315084F83060FFF716FECD
:1020B00004F118013046FFF711FE22462946BDE81B
:1020C00070403023024802F0A1BB00BFE419002099
:1020D0000817002008B5FFF723FFBDE80840FFF709
:1020E000D9BF212802D809B1FFF7F8BD7047000019
:1020F00010B5204C034694F83020824217D094F853
:10210000312084F83000BAB9012B608E10D104F16F
:102110001801FFF7E6FF638E01339BB2222B638623
:1021200005D1012384F83130002384F8343010BD08
:10213000002BF0D12146ECE794F83420012A05D891
:1021400078B90146E1540133182BFBD1531CDBB2A3
:10215000032B84F8343082BF0023638684F8313047
:10216000E5E700231846E1180133182B0876FAD169
:10217000ECE700BFE41900200020FFF7B9BF012001
:10218000FFF7B6BF08B5002000F0E0F8BDE8084052
:102190000C220249002000F0ABB800BF101800204C
:1021A0004FF47A720C21044BC3E9001264221A81A5
:1021B00000229A72FFF7E6BF1018002010B5074CF6
:1021C0000C222146002000F06FF823680C2B03D06E
:1021D000BDE81040FFF7E4BF10BD00BF101800209D
:1021E00000224FF48051014800F0B0BF000C0140C4
:1021F00001224FF48051014800F0A8BF000C0140BB
:1022000007B50A2301220DF10701044801F0CCFDB6
:102210009DF8070003B05DF804FB00BFB016002076
:1022200007B502A901F8010D0A230122034801F0B4
:1022300020FC012003B05DF804FB00BFB0160020B5
:1022400010B5FFF7CDFF0520FFF7EAFFFFF7D8FF36
:102250000446FFF7CDFF204610BD08B5FFF7F0FF9D
:1022600000F0010008BD000007B58DF8070029B196
:1022700000210620FFF7F8FFFFF7BAFF9DF80730AF
:10228000AB2B03D0FFF7E9FF0028FBD1FFF7A8FF36
:102290000A2301220DF10701024801F0EAFB03B015
:1022A0005DF804FBB016002070B5044616460D46D6
:1022B000FFF796FF00210B20FFF7D6FFC4F307407E
:1022C000FFF7AEFFC4F30720FFF7AAFFE0B2FFF766
:1022D000A7FF0020FFF7A4FFB2B2294664230348FA
:1022E00001F062FDBDE87040FFF782BFB01600202C
:1022F0002DE9F7438146884616460024124F04EB29
:10230000090302AD45F8043D01210220FFF7ACFFAF
:102310000A2303222946384601F0ABFB321BB2F5F3
:10232000807F28BF4FF4807208EB0401642392B2CF
:10233000384604F5807401F09CFBFFF759FFA64274
:10234000DDD803B0BDE8F083B016002010B5044618
:1023500001212020FFF788FFC4F30740FFF760FF4B
:10236000C4F30720FFF75CFFE0B2FFF759FFBDE8B9
:102370001040FFF73DBF0000114B07B59A690F21D0
:1023800042F001029A619A696FF0010002F00102C5
:102390000092009ADA6942F08052DA61DB69002229
:1023A00003F080530193019B00F0A6FC054A53689B
:1023B00023F0E06343F00073536003B05DF804FB67
:1023C0000010024000000140102230B5054689B0DF
:1023D0000DEB0200002104F072F82A68244B9A42A7
:1023E00044D103F56C439A69032442F400729A6164
:1023F0009A6904A902F400720192019A9A691D482F
:1024000042F004029A619A6902F004020292029A6E
:102410009A6942F008029A619B6903F008030393EA
:10242000039B0423CDE9043400F0AAFD012304A991
:102430001148CDE9043400F0A3FD00230F4C104AED
:102440008021C4E900234FF480724FF48060C4E916
:1024500003122022C4E905022046A360E36100F0D4
:102460008DFC08B1FFF738FC2C62656209B030BD05
:102470000024014000080140000C0140F41C002031
:102480000800024010B5044686B01022002102A8C0
:1024900004F015F82268174B9A4228D103F5EC3363
:1024A000DA6902A942F48042DA61DA69124802F478
:1024B00080420092009A9A6942F008029A619B69F0
:1024C0004FF4204203F008030193019B0223CDE95E
:1024D00002230323059300F053FD4FF480410023B2
:1024E0000548CDE9021302A9049300F049FD06B0A6
:1024F00010BD00BF00380040000C014037B5036834
:102500001C4A054693420BD11B4B9A6942F4006268
:102510009A619B6903F400630093009B03B030BD94
:10252000164A9342FAD1144B154CDA69202142F035
:102530000202DA61DB69134A03F002030193019B93
:102540001023C4E9002300238022C4E902324FF49F
:102550008072C4E904234FF480532046C4E9061373
:1025600000F00CFC08B1FFF7B7FB6C62AC6365626E
:10257000D4E700BF002C01400010024000040040DE
:10258000801700206C00024010B5044686B010226F
:10259000002102A803F093FF2368144A934215D147
:1025A000134B9A6942F004029A619B6903F0040399
:1025B0000093009B4FF480730293022302A90D48FD
:1025C0000393059300F0DCFC06B010BD0A4A934269
:1025D000FAD1074B9A6942F004029A619B6903F0B1
:1025E00004030193019B4023E6E700BF002C014058
:1025F00000100240000801400004004010B50146F0
:1026000088B000221E2000F077FB1E2000F0A8FBFF
:10261000144B01A9DA6903A842F00402DA61DB690C
:10262000114C03F004030293029B01F035F801F012
:1026300013F80E4B4000236040F2E733E3600C4B8D
:10264000B0FBF3F000230138606020462361A360F3
:1026500001F040FE20B9204601F0B6FC08B010BDE4
:102660000120FBE700100240401D00200008004050
:1026700040420F0070470000BFF34F8F0549064BE3
:10268000CA6802F4E0621343CB60BFF34F8F00BF10
:10269000FDE700BF00ED00E00400FA05FEE7FEE7FD
:1026A000FEE77047014800F0D7BB00BFF41C0020D4
:1026B000014800F0D1BB00BF80170020014801F0A5
:1026C00002BD00BF401D002008B54FF4806000F03F
:1026D00043FD4FF4006000F03FFDBDE808404FF4BB
:1026E000805000F039BD00000B4B10B51968024650
:1026F00009B90A491960186809490A4C0244091BBA
:102700008A4206D903F0A6FE0C2303604FF0FF3087
:1027100010BD1A60FCE700BF94000020D01D00200F
:10272000005000200004000070470000002103E07A
:102730000B4B5B58435004310A480B4B42189A42EA
:10274000F6D30A4A02E0002342F8043B084B9A42BF
:10275000F9D3FFF7E9FF03F083FEFFF753F9704762
:102760001C68000800000020740000207400002095
:10277000D01D0020FEE70000074A08B513680320BB
:1027800043F01003136000F0A5FA0020FFF736FFB6
:10279000FFF7F2FD002008BD00200240034A044B71
:1027A00011681B780B441360704700BF881D002020
:1027B00004000020014B1868704700BF881D0020EE
:1027C0007047436A10B59A6A12F0500F1BD19A6A8B
:1027D00042F400729A621A68926802F46022B2F5BA
:1027E000602F0CD11A7B52B99A6A22F480729A62D5
:1027F0009A6AD2045EBF9A6A42F001029A6218464F
:10280000FFF7DEFF10BD1B6ABDE810401B6B1847C9
:10281000704708B5406AFFF7FBFF08BD7047406A84
:1028200008B5836A43F040038362C36A43F004033C
:10283000C362FFF7F3FF08BD002373B5019390F85F
:102840002430012B6DD001234D6880F82430062DF3
:10285000026805EB85030C6823D81F26556B053BE2
:102860009E4025EA060504FA03F32B435363092C23
:102870008B6804EB44054FF007012AD9D6681E3D4A
:10288000A94026EA0101AB400B43D360A4F1100339
:10289000012B26D90023002280F82420184602B0FC
:1028A00070BD0C2D4FF01F0509D8166B233B9D40C2
:1028B00026EA050504FA03F32B431363D7E7D66A28
:1028C000413B9D4026EA050504FA03F32B43D362FE
:1028D000CDE71669A94026EA0101AB400B4313611D
:1028E000D4E7114B9A4216D193681B02D2D4936855
:1028F000102C43F400039360CCD10C4B0C4A1B68A2
:10290000B3FBF2F20A2353430193019B002BC1D086
:10291000019B013BF8E7836A43F0200383620123B4
:10292000B9E70223BAE700BF0024014000000020FD
:1029300040420F00002373B50193036804469A6870
:10294000D20702D5002002B070BD9A6842F00102A1
:102950009A60124B124A1B68B3FBF2F30193019B7E
:10296000C3B9FFF727FF064623689D6815F00105E8
:10297000E8D1FFF71FFF801B0228F5D9A36A84F86E
:10298000245043F01003A362E36A012043F00103E3
:10299000E362D8E7019B013BE0E700BF00000020B5
:1029A00040420F002DE9D8419046404B0268044652
:1029B0009A420F4602D03E498A4203D15B6813F423
:1029C000702F6ED194F82430012B6CD00123204657
:1029D00084F82430FFF7AEFF064600285DD1A06AD8
:1029E000216820F47060324B20F0010040F48070C8
:1029F0009942A06204D12D4A536813F4702F3ED13E
:102A0000A36A23F48013A3624B685A0505D5A36A11
:102A100023F4405343F48053A362A36A206A13F45F
:102A2000805318BFE36A3A4618BF23F00603E362F7
:102A3000002384F824301F4B4C3183621E4BC36249
:102A40001E4B03636FF0020341F84C3C51F8443CC9
:102A500043F4807341F8443C434600F0BFF92368D7
:102A60009A6802F46022B2F5602F9A680CBF42F4B3
:102A7000A00242F480129A603046BDE8D881A36A71
:102A800043F48013A36253685B0541BFA06A20F43E
:102A9000405040F48050A062BFE7002384F8243007
:102AA000EAE70126E8E70226E6E700BF0024014046
:102AB00000280140C3270008132800081F28000829
:102AC00038B5036804469A68D20701D4002038BD9F
:102AD0009A6822F001029A60FFF76CFE05462368AF
:102AE0009B68DB07F2D5FFF765FE401B0228F6D98D
:102AF000A36A012043F01003A362E36A43F00103D9
:102B0000E362E4E770B50446002870D0836A23B915
:102B1000C36280F82430FFF757FC2046FFF7D0FF50
:102B2000A36A13F0100FA36A63D1002861D1E16991
:102B300023F48853626823F0020343F002030A433C
:102B4000A168A362237BB1F5807F42EA430237D0BC
:102B5000012914BF06464FF48076257D012D06D14C
:102B600083BBA369013B46EA433545F4006623680D
:102B7000B1F5807F5D6825F4694545EA06055D602D
:102B80009E681E4D05EA060545EA02059D6001D0D6
:102B9000012920D1216901390905DD6A25F4700573
:102BA0002943D9629968164B0B409A4215D10023EC
:102BB000E362A36A23F0030343F00103A36270BD41
:102BC0000E46CAE7A36A43F02003A362E36A43F018
:102BD0000103E362CBE70021DFE7A36A23F01203DE
:102BE00043F01003A362E36A43F00103E3620120B0
:102BF000E5E743F01003A362F9E700BFFDF7E1FF4B
:102C0000FE0E1FFF002373B5019390F82430044695
:102C1000012B5AD0012380F82430FFF751FF0546DD
:102C2000002832D1A36A022023F4885323F0020340
:102C300043F00203A362264B1E6800F0C3FDB6FBFF
:102C4000F0F040000190019B1BBB2046FFF772FE95
:102C50002268936843F008039360FFF7ABFD0646D4
:102C600023689A68120718D49A6842F004029A609E
:102C7000FFF7A0FD064623689B685B071FD4A36A85
:102C800023F0030343F00103A362002384F82430FC
:102C900012E0019B013B0193D5E7FFF78BFD801B01
:102CA0000A28DDD9A36A012523F0120343F010039B
:102CB000A362002384F82430284602B070BDFFF7D9
:102CC00079FD801B0A28D6D9ECE70225F4E700BF7E
:102CD00000000020074A0002D36800F4E06023F4FB
:102CE000E0631B041B0C43F0BF6343F40033034356
:102CF000D360704700ED00E0174B70B5DC684FF013
:102D0000FF36C4F30224C4F10705042D04F10403C3
:102D100028BF0425062B98BF002406FA05F388BFB8
:102D2000033C21EA0303A34006FA04F422EA040464
:102D3000002843EA0403A8BF00F160404FEA0313F0
:102D4000B8BF064ADBB2ABBF00F5614000F00F0030
:102D500080F80033135470BD00ED00E014ED00E086
:102D6000002808DB0123420900F01F0003FA00F0ED
:102D7000014B43F82200704700E100E010B530B38A
:102D800014220168134B0B44B3FBF2F39B00036462
:102D9000114B0A68C363D0E901342343C46822F4A9
:102DA0007F522343046922F03002234344692343C2
:102DB00084692343C469234313430B600122002326
:102DC00080F82120836380F82030184610BD012050
:102DD000FCE700BFF8FFFDBF00000240F0B590F82F
:102DE0002040012C35D0012490F8215080F820405B
:102DF000A5424FF000064FF0020428D180F8214090
:102E000004688663266826F001062660D0E90F670D
:102E1000BD407560636043680568102BC36A0BBFD3
:102E2000A260A160E160E2604BB1236843F00E0351
:102E3000002023602B6843F001032B60F0BD236862
:102E400023F004032360236843F00A03F0E780F8CB
:102E500020600220F2E7000070B40425C66B026C0B
:102E60003468036895402542196832D04D0730D543
:102E70001A6896065EBF1A6822F004021A603E4A7B
:102E8000934219D01432934218D01432934217D07F
:102E90001432934217D01432934217D01432934213
:102EA0000CBF4FF480034FF08063344A5360C36A11
:102EB000002B5ED070BC18470423F6E74023F4E7EC
:102EC0004FF48063F1E74FF48043EEE74FF4802343
:102ED000EBE702259540254235D08D0733D51A689A
:102EE000940606D41A6822F00A021A60012280F8B9
:102EF0002120214A934219D01432934218D014321F
:102F0000934217D01432934217D01432934217D001
:102F1000143293420CBF4FF400134FF00073174A62
:102F20005360002380F82030836AC1E70223F6E76C
:102F30002023F4E74FF40073F1E74FF40053EEE77A
:102F40004FF40033EBE708259540254211D00907DF
:102F50000FD5196821F00E011960012303FA02F25E
:102F60007260836380F82130002380F82030036B87
:102F70009EE770BC704700BF08000240000002409E
:102F80002DE9F74F00242646654BDFF8A4C1DFF892
:102F9000A4E10A6832FA06F502D103B0BDE8F08F69
:102FA0004FF0010808FA06F802EA080290457ED1BF
:102FB0004D68122D00F0A98000F28280022D00F0F1
:102FC000A18076D8002D00F08880012D00F0988037
:102FD0004FF00F09FF2A93BF824606F18045083D56
:102FE000D0F800B092BFB500D0F804B0AD0009FA37
:102FF00005F82BEA080804FA05F588BF00F1040A71
:1030000048EA0505CAF80050D1F804A01AF0805F1C
:103010004DD0444F26F00308BD6908F1804845F0C3
:103020000105BD61BD6908F5803805F00105019510
:1030300006F0030B019D4FEA8B0BD8F8085009FAF4
:103040000BF925EA0909384DA84263D005F58065DA
:10305000A84261D005F58065A8425FD005F580657E
:10306000A8420CBF0325042505FA0BF545EA09051E
:10307000C8F808501D681AF4803F14BF15439543E3
:103080001D605D681AF4003F14BF154395435D60F1
:103090009D681AF4801F14BF154395439D60DD6839
:1030A0001AF4001F14BF2A4325EA0202DA6001362F
:1030B0006FE7032D22D0112D8AD1CC68043487E725
:1030C0001A4FBD4209D012D8DFF86C904D4504D09C
:1030D00009F580394D457FF47BAF8C68C4B1012C74
:1030E0000CBFC0F81080C0F81480082470E7654554
:1030F000F3D07545F1D0DFF84490EBE7002467E7A3
:10310000CC6865E7CC68083462E7CC680C345FE7CC
:1031100004245DE70025A7E70125A5E70225A3E72D
:10312000000401400010024000080140000021108E
:1031300000003110000032100000111000002210B9
:103140008368194214BF0120002070470AB1016151
:1031500070470904FBE7000008B5044B59690142B8
:1031600002D05861FEF7CCFB08BD00BF000401404F
:103170002DE9F341054608B901203CE00368DB076F
:1031800010D42B689F075DD42B68190700F1948039
:103190002B685A0700F1BE80E869002840F02C81B6
:1031A000002028E08F4C636803F00C03042B07D049
:1031B000636803F00C03082B09D16368DE0306D5AE
:1031C00023689C03DDD56B68002BDAD1D4E76B68EC
:1031D000B3F5803F12D1236843F480332360FFF7B7
:1031E000E9FA064623689803CBD4FFF7E3FA801B7D
:1031F0006428F7D9032002B0BDE8F0819BB92368A9
:1032000023F480332360236823F480232360FFF7B3
:10321000D1FA064623689903B3D5FFF7CBFA801B92
:103220006428F7D9E6E7B3F5A02F236803D143F468
:1032300080232360CFE723F480332360236823F4C3
:103240008023CBE7674C636813F00C0F07D06368EB
:1032500003F00C03082B10D16368DA030DD4236844
:103260009B0702D52B69012B86D123686A6923F05D
:10327000F80343EAC203236086E72A695A4B6AB11E
:1032800001221A60FFF796FA064623689F07ECD4DE
:10329000FFF790FA801B0228F7D9ABE71A60FFF717
:1032A00089FA0646236898077FF56EAFFFF782FA22
:1032B000801B0228F6D99DE7AA694A4C4B4BDAB12C
:1032C00001221A60FFF776FA0646636A9B070DD55E
:1032D0004FF4FA52464B1B68B3FBF2F3019300BF65
:1032E000019B5A1E0192002BF9D151E7FFF762FAB8
:1032F000801B0228E9D97DE71A60FFF75BFA0646D2
:10330000636A9F077FF544AFFFF754FA801B0228DA
:10331000F6D96FE7334CE369D80024D40127E36979
:1033200043F08053E361E36903F080530093009B13
:10333000304E3368D90518D5EB68012B26D1236AA6
:1033400043F001032362FFF735FA41F288368046E5
:10335000236A9B073FD5002F3FF41EAFE36923F09C
:103360008053E36118E70027E2E7336843F4807392
:103370003360FFF71FFA80463368DA05DCD4FFF7C5
:1033800019FAA0EB08006428F6D933E7ABB9236A31
:1033900041F2883823F001032362236A23F00403F7
:1033A0002362FFF707FA0646236A9807D3D5FFF78B
:1033B00001FA801B4045F7D91CE7052B236A03D18E
:1033C00043F004032362BAE723F001032362236A74
:1033D00023F00403B6E7FFF7EDF9A0EB0800B042D5
:1033E000B6D907E700100240000042428004424282
:1033F00000000020007000402A4B5A681C4602F072
:103400000C02082A3DD00023274E022833602BD11E
:10341000FFF7D0F90746236899011FD42B6AB3F54B
:10342000803F05D16268A96822F400320A436260D5
:10343000696A62680B4322F47412134363600123C8
:103440003360FFF7B7F9054623689A013FF5A8AE48
:10345000FFF7B0F9401B0228F6D9CBE6FFF7AAF92F
:10346000C01B0228D7D9C5E6FFF7A4F90546236893
:103470009B017FF595AEFFF79DF9401B0228F6D919
:10348000B8E601283FF4B7AE58682B6A00F48032E2
:103490009A427FF471AE6B6A00F47010C01A18BFC4
:1034A0000120A8E6001002406000424230B5184BEF
:1034B00087B002AC03F1100522461868596808333A
:1034C00003C2AB421446F7D140F201231149ADF8D3
:1034D00004304B6803F00C02082A17D1C3F383426F
:1034E00006A80244DB0312F8102C0CD54B680A48DE
:1034F000C3F34043504306AA134413F8143CB0FBF3
:10350000F3F007B030BD05485043FAE70248F8E74A
:10351000386600080010024000127A0000093D00E1
:103520002DE9F0410D46044610B90120BDE8F081B7
:10353000444A136803F007038B4228D321688E079F
:1035400030D4CA0743D43F4A136803F00703AB42A1
:1035500065D822683C4D12F0040F6CD1130706D5D4
:103560006B68226923F4605343EAC2036B60FFF780
:103570009DFF6B68354AC3F30313D35CD840344BCB
:103580001860344B1868FFF739F80020CEE713684D
:1035900023F007030B431360136803F007038B4208
:1035A000C3D1CBE7284B11F0040F1EBF5A6842F479
:1035B000E0625A60080742BF5A6842F460525A609B
:1035C0005A68A06822F0F00202435A60B9E76268C4
:1035D0001D4E012A33681AD113F4003FA5D0736839
:1035E00041F2883823F0030313437360FFF7E2F8D6
:1035F00007467368626803F00C03B3EB820FA2D036
:10360000FFF7D8F8C01B4045F3D903208EE7022A04
:1036100002D113F0007FE1E713F0020FDEE7136839
:1036200023F007032B431360136803F00703AB4237
:103630007FF47BAF8DE76B68E16823F4E0630B43B5
:103640006B608BE70020024000100240E867000832
:103650000000002008000020044B054A5B68C3F30B
:103660000223D35C034A1068D84070470010024020
:10367000F867000800000020044B054A5B68C3F3AC
:10368000C223D35C034A1068D84070470010024040
:10369000F8670008000000200F2303600B4B5A68F6
:1036A00002F0030242605A6802F0F00282605A6837
:1036B00002F4E062C2605B68DB0803F4E06303616C
:1036C000034B1B6803F007030B60704700100240B8
:1036D0000020024003682DE9F341D907054620D5B3
:1036E000354CE369DA0032D40127E36943F08053B3
:1036F000E361E36903F080530193019B2F4E33682C
:10370000DB0526D5236A13F4407336D1236A6A6831
:1037100023F44073134323621FB1E36923F0805302
:10372000E3612868830706D5234AA968536823F410
:1037300040430B43536010F010001BD01E4AE96851
:103740005368002023F480030B43536012E00027EA
:10375000D4E7336843F480733360FFF72BF8804677
:103760003368D805CED4FFF725F8A0EB080064280D
:10377000F6D9032002B0BDE8F0816A6802F4407215
:103780009A42C3D001200E4A236A1060002023F41D
:10379000407110602162D907B8D5FFF70BF841F2EC
:1037A00088380646236A9A07B0D4FFF703F8801BCF
:1037B0004045F7D9DDE700BF00100240007000402F
:1037C0004004424270B50446344B86B002AD03F16A
:1037D00010062A4618685968083303C2B3421546D2
:1037E000F7D140F20123022CADF8043047D0102C61
:1037F00017D0012C4FD140F20231294A136A1940E7
:10380000B1F5817F44D003F44073B3F5007F2DD12F
:1038100049F64040536A13F0020F08BF002006B07B
:1038200070BD1F4B5968186810F08070F7D0C1F355
:10383000834206A8024412F8100CCA0341BF5A681A
:1038400006A9C2F34042521844BF12F8141C154A8C
:103850005B684CBFB2FBF1F2134A5B0202FB00F063
:10386000DDD403234000B0FBF3F0D8E7B3F5407F8D
:1038700011D113684FF2244013F4003FCDE7FFF756
:10388000FBFE074B5B68C3F3813301335B00EAE760
:103890004FF40040C3E70020C1E700BF48660008BE
:1038A0000010024000127A0000093D002DE9F341AA
:1038B0001C4616460F460546FEF77CFF3444241A84
:1038C000FEF778FF8046234B1B68C3F3CB3363437B
:1038D0002A680193936837EA030301D000202EE0A1
:1038E000731CF7D0FEF766FFA0EB0800A04229D3B7
:1038F0002B685A6822F0E0025A606A68B2F5827F4B
:103900000AD1AA68B2F5004F02D0B2F5806F03D198
:103910001A6822F040021A60AA6AB2F5005F07D165
:103920001A6822F400521A601A6842F400521A60AF
:10393000012385F851300023032085F8503002B070
:10394000BDE8F081019B002B019B08BF0024013BD7
:10395000BEE700BF0000002038B5134642680446A9
:10396000B2F5827F16D18068B0F5004F02D0B0F575
:10397000806F0FD12268B0F5806F156825F0400583
:10398000156007D10A4601212046FFF78FFF20B9B5
:10399000002038BD0A468021F6E7636D032043F01E
:1039A00020036365F5E710B513460A4680210446F7
:1039B000FFF77CFF20B10320636D43F020036365B4
:1039C00010BD10B50446002851D0436A002B4AD1DF
:1039D0004268B2F5827F00D0C3610023A36294F8ED
:1039E000513003F0FF0223B984F850202046FEF73F
:1039F00049FD0223226884F851301368A06823F03F
:103A000040031360636800F4044003F482730343CB
:103A1000E068A16900F400600343206900F002003F
:103A20000343606900F00100034301F400700343A5
:103A3000E069090C00F038000343206A01F004013A
:103A400000F080000343A06A00F4005003431360B9
:103A50005160D369002023F40063D36101236065C2
:103A600084F8513010BD0023C0E90433B5E70120CC
:103A7000F8E72DE9F3411E4690F850300446012B3B
:103A80000D46904600F09E80012380F85030FEF7EE
:103A900091FE074694F85100C0B2012840F0908092
:103AA000002D60D0B8F1000F5DD00323002084F812
:103AB0005130A3686065B3F5004FA4F83680A06369
:103AC000A087E087C4E910002563A4F8348020684B
:103AD00007D1036823F040030360036843F4804385
:103AE00003600368E2685B065EBF036843F040035F
:103AF0000360B2F5006F63683ED113B1B8F1010FF6
:103B000007D135F8023BC3602563E38E013B9BB2CE
:103B1000E386E38E9BB2A3B93A4631462046FFF7CF
:103B200042FF002849D1A36833B901932368DA68BA
:103B300001929B680193019B606D003018BF0120CA
:103B400011E022689368980705D5236B33F8021BB0
:103B5000D1602363D9E7FEF72DFEC01BB042D8D356
:103B6000711CD6D00320012384F85130002384F83F
:103B7000503002B0BDE8F08113B1B8F1010F08D1A7
:103B80002B780373236B01332363E38E013B9BB2DA
:103B9000E386E38E9BB2002BBED023689A6892071F
:103BA00003D5226B12781A73ECE7FEF703FEC01BF5
:103BB000B042EED3731CECD0D4E720236365B2E7A8
:103BC0000220D0E70220D4E72DE9F7431E4690F803
:103BD00050300446012B0D4691460A9F00F0E280CA
:103BE000012380F85030FEF7E5FD94F8513080460F
:103BF000DBB2012B61680AD0B1F5827F40F0D08042
:103C0000A068002840F0CC80042B40F0C980002D33
:103C100000F0C480B9F1000F00F0C080002E00F069
:103C2000BD8094F85130C4F83890042B1CBF052394
:103C300084F8513000236365C4E910332368E687B4
:103C4000E6861A68A687500658BF1A68256358BFCB
:103C500042F04002A68658BF1A60E268B2F5006FD3
:103C600058D109B1012E07D135F8022BDA60E38E65
:103C70002563013B9BB2E3860125E38E9BB2ABB982
:103C8000E38F9BB293B9424639462046FFF78BFE3D
:103C9000002840F08180A368002B32D12368019076
:103CA000DA6801929B680193019B2AE0226893687D
:103CB00099070DD5E38E9BB253B14DB10025236B0F
:103CC00033F8021BD1602363E38E013B9BB2E38692
:103CD0009368DB070CD5E38F9BB24BB10125D2680B
:103CE000A36B23F8022BA363E38F013B9BB2E38713
:103CF000FEF760FDA0EB08008742BED87E1CBCD05A
:103D00000320012384F85130002384F8503003B09D
:103D1000BDE8F08309B1012E08D12A781A73236B0C
:103D200001332363E38E013B9BB2E3860125E38EDF
:103D30009BB21BB9E38F9BB2002BA4D0226893687F
:103D400098070ED5E38E9BB25BB155B10025236B6E
:103D50001B781373236B01332363E38E013B9BB208
:103D6000E38622689368D9070DD5E38F9BB253B1E0
:103D70000125D268A36B1A70A36B0133A363E38F91
:103D8000013B9BB2E387FEF715FDA0EB08008742DD
:103D9000CDD87B1CCBD0B3E7202363650120B0E7EF
:103DA0000220AEE70220B2E72DE9F3411D46436849
:103DB0000446B3F5827F884617460CD1836853B911
:103DC000042380F85130134600950A46FFF7FCFEA5
:103DD00002B0BDE8F08194F85030012B7DD0012372
:103DE00084F85030FEF7E6FC064694F85100C0B265
:103DF000012870D1B8F1000F5BD0002F59D00423F7
:103E000084F85130002363652363E787A386E38644
:103E1000C4E91033A368C4F83880B3F5004FA7870E
:103E2000216807D10B6823F040030B600B6823F473
:103E300080430B600B685F065EBF0B6843F0400376
:103E40000B60E368F3B1E38F9BB2FBB123689A6820
:103E5000D20735D5DA68A36B23F8022BA363E38F6F
:103E6000013B9BB2E387EEE723689A68D00718D539
:103E70001B7BA26B1370A36B0133A363E38F013B26
:103E80009BB2E387E38F9BB2002BEDD132462946EC
:103E90002046FFF761FDD8B9606D003018BF0120E2
:103EA00007E0FEF787FC801BA842EBD3691CE9D032
:103EB0000320012384F85130002384F8503087E731
:103EC000FEF778FC801BA842BDD36B1CBBD0EFE78C
:103ED00020236365E0E70220EBE7022078E700009B
:103EE000036A70B523F001030362036A44688269C0
:103EF0000D6822F073022A438D6823F002032B43DE
:103F00000A4DA8420BD1CD6823F008032B4324F4BB
:103F10004074D1E90556354323F004032C43446033
:103F200082614A684263036270BD00BF002C014099
:103F3000036A70B523F480730362036A4468C2693C
:103F40000D6822F073022A438D6823F4007343EA5C
:103F500005230B4DA8420DD1CD6823F4006343EA3D
:103F6000052324F44054D1E90556354323F48063F6
:103F700044EA05144460C2614A68C263036270BDCA
:103F8000002C0140036A30B523F480530362036AB6
:103F90004468C2690D6822F4E64242EA05228D684F
:103FA00023F4005343EA0533064DA84202BF4D698E
:103FB00024F4804444EA85144460C2614A6802647F
:103FC000036230BD002C014090F83D30012B20D120
:103FD000022380F83D300368DA6842F00102DA60BB
:103FE0000D4A93420AD0B3F1804F07D0A2F5943224
:103FF000934203D002F58062934204D19A6802F0A2
:104000000702062A03D01A6842F001021A60002053
:1040100070470120704700BF002C01407047704777
:10402000704710B5446A626A82420BD101239269DB
:1040300023770AB984F83E302046FEF7A0F8002323
:10404000237710BDA36A834208D102229B6922779D
:10405000002BF1D1012384F83F30EDE7E36A83427E
:1040600008D104229B692277002BE5D1012384F833
:104070004030E1E7236B8342DED108229B6922773F
:10408000002BD9D1012384F84130D5E710B5446A1B
:10409000636A834207D1012323772046FEF76CF839
:1040A0000023237710BDA36A834201D10223F3E7E3
:1040B000E36A834201D10423EEE7236B8342ECD110
:1040C0000823E9E77047036810B51A6904469107A9
:1040D0000ED5DA6892070BD56FF002021A61012241
:1040E0009B6902779B0777D0FFF79AFF002323771E
:1040F00023681A69500710D5DA6851070DD56FF09B
:1041000004021A6102229B69227713F4407F204641
:1041100068D0FFF785FF0023237723681A69120709
:104120000FD5DA6810070CD56FF008021A61042267
:10413000DB692277990720465AD0FFF771FF0023E9
:10414000237723681A69D20610D5DA68D0060DD510
:104150006FF010021A610822DB69227713F4407FA6
:1041600020464BD0FFF75CFF0023237723681A69B2
:10417000D10708D5DA68D20705D56FF001022046CD
:104180001A61FDF79FFD23681A69100608D5DA68E1
:10419000110605D56FF0800220461A6100F091FBF0
:1041A00023681A69520608D5DA68500605D56FF0FB
:1041B000400220461A61FFF785FF23681A699106BD
:1041C00022D5DA6892061FD56FF020022046BDE89E
:1041D00010401A6100F074BBFFF721FF2046FDF785
:1041E000CEFF83E7FFF71BFF2046FDF7C8FF92E7EE
:1041F000FFF715FF2046FDF7C2FFA0E7FFF70FFF0F
:104200002046FDF7BCFFAFE710BD704710B5446A0C
:10421000636A834209D10123237784F83E30204624
:10422000FFF7F3FF0023237710BDA36A834205D174
:1042300002232377012384F83F30F0E7E36A8342C7
:104240004FF0010304D1042284F840302277E6E7DE
:10425000226B824203BF082284F84130227784F81F
:104260003D30DCE71A4A036890420AD0B0F1804F33
:1042700007D0A2F59432904203D002F580629042BA
:1042800015D14A6823F070031343114A90420AD0B3
:10429000B0F1804F07D0A2F59432904203D002F5DE
:1042A0008062904203D1CA6823F4407313434A6981
:1042B00023F08003134303608B68C3620B6883623F
:1042C000034B984204BF0B690363012343617047AA
:1042D000002C014010B5044630B390F83D3003F097
:1042E000FF021BB980F83C20FEF708F90223206882
:1042F00084F83D30211DFFF7B5FF0123002084F82D
:10430000463084F83E3084F83F3084F8403084F8FA
:10431000413084F8423084F8433084F8443084F8E3
:10432000453084F83D3010BD0120FCE710B504464F
:1043300030B390F83D3003F0FF021BB980F83C2009
:10434000FFF76CFE0223206884F83D30211DFFF743
:1043500089FF0123002084F8463084F83E3084F839
:104360003F3084F8403084F8413084F8423084F89B
:10437000433084F8443084F8453084F83D3010BD33
:104380000120FCE7036A70B523F010030362036A9F
:10439000446882690D6822F4E64242EA05228D688B
:1043A00023F0200343EA05130B4DA8420DD1CD683D
:1043B00023F0800343EA051324F44064D1E9055651
:1043C000354323F0400344EA8504446082614A682F
:1043D0008263036270BD00BF002C014038B590F8C5
:1043E0003C300446012B54D0012380F83C300C2A89
:1043F00018D8DFE802F0071717171B1717172C1725
:1044000017173D000068FFF76BFD236809699A697B
:1044100042F008029A619A6922F004029A619A694C
:104420000A439A61002084F83C0038BD0068FFF719
:10443000A9FF236809699A6942F400629A619A693E
:1044400022F480629A619A6942EA0122E9E70068EF
:10445000FFF76EFD23680969DA6942F00802DA6144
:10446000DA6922F00402DA61DA690A43DA61D9E72B
:104470000068FFF787FD23680969DA6942F4006282
:10448000DA61DA6922F48062DA61DA6942EA0122E9
:10449000ECE70220C9E710B584680A4324F47F449E
:1044A00042EA03232343836010BD90F83C3070B58B
:1044B000012B04464FF0020019D0012384F83D007F
:1044C000206884F83C30836823F47F4323F077032B
:1044D00083600B68402B65D015D8102B0CD007D803
:1044E00053B10123002084F83D3084F83C0070BDB6
:1044F000202B01D0302BF4D1826843F0070322F047
:10450000700213431AE0602B34D019D8502BE8D135
:104510004A68CE68016A056A21F00A0125F00105A2
:10452000056283690A4323F0F00343EA06138361BB
:104530000262836823F0700343F057038360D0E77F
:10454000702B0CD0B3F5005FCBD1CB68D1E9012142
:10455000FFF7A1FF2268936843F4804308E0CB682B
:10456000D1E90121FFF797FF2268936843F07703B1
:104570009360B6E74D68CE68016A21F010010162D0
:104580008269036A22F4704223F0A00343EA051310
:1045900042EA063282610362836823F0700343F0CB
:1045A0006703CBE74A68CE68016A056A21F00A0111
:1045B00025F00105056283690A4323F0F00343EA0D
:1045C000061383610262836823F0700343F047039C
:1045D000B4E710B50124036A01F01F018C4023EAFF
:1045E00004030362036A8A401A43026210BD00009A
:1045F00010B5044629B990F83E30012B1DD001209A
:1046000010BD042907D190F83F30012BF7D10223C8
:1046100080F83F3014E0082907D190F84030012B92
:10462000EDD1022380F840300AE090F84130012BB0
:10463000E5D1022380F8413002E0022380F83E30C9
:1046400001222068FFF7C5FF23680E4A93420AD172
:104650005A6C42F400425A649A6802F00702062A31
:104660000BD10020CCE7B3F1804FF5D0064A93423E
:10467000F2D002F580629342EED01A6842F0010255
:104680001A60EEE7002C014000040040FFF7B0BFC5
:1046900070B5044616460D4629B990F83E00C0B2E2
:1046A00002281CD170BD042907D190F83F00C0B288
:1046B0000228F7D094F83F2013E0082907D190F89A
:1046C0004000C0B20228EDD094F8402009E090F8F4
:1046D0004100C0B20228E5D094F8412001E094F8EE
:1046E0003E20511E4A424A410AB90120DAE70EB97A
:1046F000002BFAD122680221A5B984F83E10606A25
:104700003D49343281623D49C1623D4901633146D0
:10471000FEF764FB0028E8D12268D36843F40073F5
:10472000D36033E0042D13D184F83F10A06A3249DE
:10473000383281623149C162314901633146FEF745
:104740004DFB0028D1D12268D36843F48063E7E7AA
:10475000082D13D184F84010E06A27493C32816269
:104760002649C162264901633146FEF737FB00281E
:10477000BBD12268D36843F40063D1E7042D84F8E9
:104780004110D3D00C2D15D0002DB8D001222946D0
:104790002068FFF71EFF23681A4A93421CD15A6C07
:1047A00042F400425A649A6802F00702062A1DD1B8
:1047B000002077E7206B1049403281620F49C162C7
:1047C0000F4901633146FEF709FB00288DD12268AD
:1047D000D36843F48053A3E7B3F1804FE3D00A4A90
:1047E0009342E0D002F580629342DCD01A6842F036
:1047F00001021A60DCE700BF234000088D4000087A
:104800000D420008002C014000040040FFF740BFAB
:1048100090F83C3030B5012B4FF0020325D0012237
:1048200080F83D3003680D685C6880F83C2024F017
:1048300070042C439A685C600D4CA3420AD0B3F11B
:10484000804F07D0A4F59434A34203D004F58064CC
:10485000A34204D1496822F080020A439A600123EE
:1048600080F83D30002380F83C30184630BD00BF52
:10487000002C014090F83C30012B1FD0CB688A6897
:1048800023F4407313434A6823F4806313430A6894
:1048900023F4006313430A6923F4805313434A69E2
:1048A00023F400531343CA6923F48043134302687B
:1048B0005364002380F83C3018467047022070474C
:1048C00070477047EFF3058313B16FF00500704731
:1048D000EFF31083002BF8D1074B1868022806D19C
:1048E000EFF31183002BF0D14FF0FF307047002819
:1048F000FAD101221A607047F401002010B5EFF3DD
:10490000058313B16FF0050010BDEFF31084002C88
:10491000F8D1094B1A68022A06D1EFF31183002B54
:10492000F0D14FF0FF30EFE7012AFAD102221A60EE
:1049300000F096FE2046E7E7F4010020EFF3058340
:104940000BB100F0DFBEEFF31083002BF9D1054B64
:104950001B68022B03D1EFF31183002BF1D100F080
:10496000CBBE00BFF4010020F0B51446002287B092
:104970000B460592EFF3058262BBEFF310824ABB50
:10498000264A1268022A02D1EFF3118212BB08B341
:1049900000228DF81320002C39D0216809B90DF1BF
:1049A0001301A569002D08BF18256A1E372A2F4656
:1049B00032D86268D2072FD4666976B1B208D4E9DA
:1049C00002CEBCF1000F0AD0BEF15B0F02D9246900
:1049D00004B1AEB9059807B0F0BD4022EFE7BEF1D3
:1049E000000FF7D12469002CF4D105ACCDE9007497
:1049F00092B200F072FD01281CBF00230593E9E785
:104A0000CDE9014C009500F031FD0590E2E7182753
:104A100040220DF11301E8E70020DCE7F40100205B
:104A200008B5EFF3058313B14FF0FF3017E0EFF354
:104A30001083002BF8D10D4B1B68022B03D1EFF331
:104A40001183002BF0D10028EED000F0CBFD04281C
:104A5000EAD8DFE800F0090305050700012008BDDA
:104A60000320FCE70420FAE70220F8E7F401002025
:104A700010B50446EFF3058313B16FF0050010BDC8
:104A8000EFF31083002BF8D10C4B1B68022B03D1E2
:104A9000EFF31183002BF0D14CB1204600F0A2FDC2
:104AA000042807D0204600F045FD0020E7E76FF01E
:104AB0000300E4E76FF00200E1E700BFF40100202B
:104AC00008B5EFF3058313B16FF0050008BDEFF3F0
:104AD0001083002BF8D1074B1B68022B03D1EFF397
:104AE0001183002BF0D10028F0D000F017FF002038
:104AF000ECE700BFF4010020034B0360034B0B60A5
:104B000040231360704700BF9801002098000020E8
:104B1000034B0360034B0B6080231360704700BF9F
:104B2000F8030020F80100204FF0FF3200F10803E5
:104B30004360C0E902230361002303607047002340
:104B40000361704743689A684B608A609A68516055
:104B50009960036808610133036070470A6830B5E3
:104B6000531C0AD103695A684A6091608B6059608E
:104B7000036808610133036030BD00F108035C681D
:104B800025689542EFD82346F9E70369D0E9011279
:104B90008A60826851605968814208BF5A60002269
:104BA00002611A68013A1A601868704710B5044625
:104BB00001F058FAA46B01F077FAB4FA84F04009D6
:104BC00010BD70B51546026C0446866B42B9056887
:104BD0009DB9406800F0DAFF65600136A66370BDDC
:104BE0006DB9806801F060FCA368226C13446268B0
:104BF000A360934201D32368A3600020EDE7C0685F
:104C000001F052FC236CE2685B4221681A448A423C
:104C1000E2603EBF62689B18E360022DEDD10EB1E9
:104C2000013EEAE73046D8E703461A6C10B408465E
:104C300062B1D9685C681144A142D96028BF196883
:104C400010BC28BFD960D96801F02EBC10BC7047D9
:104C500070B5044601F006FA94F8455004F12406B4
:104C60006DB2002D14DCFF2384F8453001F01CFAEE
:104C700001F0F8F994F8445004F110066DB2002DDB
:104C800012DCFF2384F84430BDE8704001F00CBA18
:104C9000636A002BE7D0304600F0DAFE08B100F07E
:104CA0005FFF013D6DB2DCE72369002BE9D03046A0
:104CB00000F0CEFE08B100F053FF013D6DB2DEE71B
:104CC00038B50D46044640B94FF0500383F31188C0
:104CD000BFF36F8FBFF34F8FFEE701F0C3F9D4E945
:104CE0000F3043432268D1181B1A13446160E360FC
:104CF0000021FF23A163A26084F8443084F845308A
:104D000095B9236963B104F1100000F0A1FE38B138
:104D10004FF08052094B1A60BFF34F8FBFF36F8F74
:104D200001F0C2F9012038BD04F11000FFF7FCFECC
:104D300004F12400FFF7F8FEF2E700BF04ED00E005
:104D400013B51C4640B94FF0500383F31188BFF3ED
:104D50006F8FBFF34F8FFEE743B94FF0500383F3DC
:104D60001188BFF36F8FBFF34F8FFEE74AB191B940
:104D70004FF0500383F31188BFF36F8FBFF34F8F52
:104D8000FEE741B14FF0500383F31188BFF36F8FFB
:104D9000BFF34F8FFEE750230193019B502B08D0A8
:104DA0004FF0500383F31188BFF36F8FBFF34F8F22
:104DB000FEE70123002908BF2246C4E90F0184F859
:104DC0004630194622602046FFF77AFF20469DF8BC
:104DD000103084F84C3002B010BD00002DE9FF47C0
:104DE000884601921F46044640B94FF0500383F3B2
:104DF0001188BFF36F8FBFF34F8FFEE751B9036C7C
:104E000043B14FF0500383F31188BFF36F8FBFF3AB
:104E10004F8FFEE7022F0BD1E36B012B08D04FF031
:104E2000500383F31188BFF36F8FBFF34F8FFEE7FB
:104E300000F09CFE50B9019E4EB14FF0500383F339
:104E40001188BFF36F8FBFF34F8FFEE700264FF03F
:104E50000009DFF8E8A037E0019D1DB901F024F951
:104E6000002050E016B902A800F032FE01F01CF953
:104E700000F03AFC01F0F6F894F84430FF2B08BF3C
:104E800084F8449094F84530FF2B08BF84F845908F
:104E900001F00AF901A902A800F026FE002846D177
:104EA00001F0E0F8A26BE36B9A422FD101F0FCF81D
:104EB000019904F1100000F091FD2046FFF7C8FEB3
:104EC00000F0B8FC50B3012601F0CCF8A26BE36B04
:104ED0009A4201D3022FBFD13A4641462046FFF7FE
:104EE00070FE636A1BB104F1240000F0B1FD38B11B
:104EF0004FF08052114B1A60BFF34F8FBFF36F8F8B
:104F000001F0D2F8012004B0BDE8F08701F0CCF840
:104F10002046FFF79DFE00F08DFCD4E74FF0805354
:104F2000CAF80030BFF34F8FBFF36F8FCBE7204637
:104F3000FFF78EFE00F07EFC92E700BF04ED00E07C
:104F40002DE9F843894690461F46044640B94FF084
:104F5000500383F31188BFF36F8FBFF34F8FFEE7CA
:104F600051B9036C43B14FF0500383F31188BFF381
:104F70006F8FBFF34F8FFEE7022F0BD1E36B012B37
:104F800008D04FF0500383F31188BFF36F8FBFF346
:104F90004F8FFEE701F048F9EFF311864FF0500311
:104FA00083F31188BFF36F8FBFF34F8FA26BE36B57
:104FB0009A4201D3022F22D194F845503A466DB25D
:104FC00049462046FFF7FDFD6B1C13D1636A0BB900
:104FD00001200BE004F1240000F03AFD0028F7D096
:104FE000B8F1000FF4D00120C8F8000086F3118852
:104FF000BDE8F88301356DB284F84550E8E700203C
:10500000F4E700002DE9F04385B00F460192044615
:1050100040B94FF0500383F31188BFF36F8FBFF394
:105020004F8FFEE751B9036C43B14FF0500383F348
:105030001188BFF36F8FBFF34F8FFEE700F096FD2F
:1050400050B9019E4EB14FF0500383F31188BFF366
:105050006F8FBFF34F8FFEE700264FF00008DFF899
:10506000E0903BE0019D1DB901F01EF8002052E0E8
:1050700016B902A800F02CFD01F016F800F034FB80
:1050800000F0F0FF94F84430FF2B08BF84F8448010
:1050900094F84530FF2B08BF84F8458001F004F8F0
:1050A00001A902A800F020FD00283DD12046FFF70D
:1050B0007DFD98B3019904F1240000F08FFC204697
:1050C000FFF7C6FD00F0B6FB38B94FF08053C9F8C2
:1050D0000030BFF34F8FBFF36F8F012600F0C2FF88
:1050E000A56B002DBED039462046013DFFF79CFD43
:1050F000A563236963B104F1100000F0A9FC38B185
:105100004FF080520E4B1A60BFF34F8FBFF36F8F7B
:1051100000F0CAFF012005B0BDE8F0832046FFF78C
:1051200097FD00F087FBD8E72046FFF791FD00F0E0
:1051300081FB2046FFF73AFD0028CED096E700BF5E
:1051400004ED00E0002330B5064A52F8335002EB7C
:10515000C3041DB942F83310606030BD0133082B21
:10516000F3D1FAE78C1D002070B504460D461646B3
:1051700000F078FF94F84430FF2B04BF002384F83C
:10518000443094F84530FF2B04BF002384F84530A9
:1051900000F08AFFA36B2BB93246294604F12400A4
:1051A00000F036FC2046BDE87040FFF751BD00001E
:1051B0002DE9F041044600F055FF2F4B2F4D1A68A2
:1051C0002F4F01321A602E68002E49D12C601B68C7
:1051D000012B1FD14FF0140808FB06700136FFF7B2
:1051E000A3FC382EF8D1DFF8C480264E4046FFF7E6
:1051F0009BFC3046FFF798FC2348FFF795FC2348BB
:10520000FFF792FC2248FFF78FFC224BC3F8008087
:10521000214B1E601420214A136801331360204A79
:1052200063641168E36A8B4200FB037004F10401BC
:1052300088BF1360FFF786FC00F036FF194B1B6830
:1052400063B12B68DA6AE36A9A4207D24FF0805260
:10525000154B1A60BFF34F8FBFF36F8FBDE8F0811E
:10526000104B1B68002BD5D12B68DA6AE36A9A428F
:1052700098BF2C60CEE700BFC00800205404002077
:1052800060040020EC0800200809002034090020F8
:1052900020090020580400205C040020D0080020D1
:1052A000D40800201C09002004ED00E0D8080020EC
:1052B00010B590F8593004463BB9006B01F092F8F4
:1052C0002046BDE8104001F08DB8012BF9D0022B2B
:1052D00008D04FF0500383F31188BFF36F8FBFF3F3
:1052E0004F8FFEE710BD000080B5DFF85C80124FE5
:1052F000124C134D236863B9124B1B68012BF8D96C
:105300004FF08053C8F80030BFF34F8FBFF36F8F5B
:10531000EEE700F0A7FEFB68DE68301DFFF735FC06
:105320002B68013B2B602368013B236000F0BCFE2F
:105330003046FFF7BDFFDDE734090020C408002038
:10534000C00800206004002004ED00E0064A136855
:105350001968064B19B94FF0FF321A60704712688E
:10536000D268D2685268F8E758040020000900208B
:105370002DE9F0470D46DDE9097496003246804676
:10538000A521206B994601F09AF8236B043E1E4438
:1053900026F007066B1E04F134020F3513F8011FC7
:1053A00002F8011B197809B1AB42F7D1089D4FF003
:1053B000000A372D28BF3725201DE562C4E9135A9E
:1053C00084F843A0FFF7BBFBC5F1380504F11800D2
:1053D000FFF7B5FBC4F854A02461A561646284F8AA
:1053E00058A04A464146304600F018FE206007B1FA
:1053F0003C60BDE8F0870000F8B50546154B164E39
:105400001C6830680F460430FFF7BFFB6B1C334647
:1054100007D137B1316811480431BDE8F840FFF7D2
:1054200091BB1A686419546007D30D4A1068196853
:10543000BDE8F8400431FFF791BB0A4A10681968CB
:105440000431FFF78BFB084B1A68A24288BF1C602F
:10545000F8BD00BF480900205404002020090020A6
:105460005C040020580400200009002070B586B0BC
:10547000DDE90B5445B94FF0500383F31188BFF3B6
:105480006F8FBFF34F8FFEE744B94FF0500383F3A4
:105490001188BFF36F8FBFF34F8FFEE75C26049632
:1054A000049E5C2E08D04FF0500383F31188BFF3A5
:1054B0006F8FBFF34F8FFEE72563022584F85950A5
:1054C00005AD01950A9D02940095FFF751FF204616
:1054D000FFF76EFE059806B070BD2DE9F043074654
:1054E00085B0900088461646994600F0EFFE0546C6
:1054F000E8B15C2000F0EAFE0446A8B1002380F881
:1055000059300D9B056301930C9B0290009332462A
:105510004B4641463846FFF72BFF2046FFF748FE33
:10552000012005B0BDE8F083284600F05BFF4FF096
:10553000FF30F6E770B50446224D00F093FD04B944
:105540002C68261D3046FFF720FBA36A1BB104F12F
:105550001800FFF71AFB1C4A1368013313602B680D
:10556000A3421BD131461948FFF7ECFA184A1368D9
:105570000133136000F098FD164B1B6803B32B68D2
:10558000A3421DD1144B1B6893B14FF0500383F31A
:105590001188BFF36F8FBFF34F8FFEE70F4A20468E
:1055A0001368013B1360FFF783FEFFF7CFFEE1E7CF
:1055B0004FF080520A4B1A60BFF34F8FBFF36F8FCB
:1055C00070BD00BF54040020D00800203409002022
:1055D000C40800201C090020CC080020C0080020BE
:1055E00004ED00E038B5054640B94FF0500383F3B1
:1055F0001188BFF36F8FBFF34F8FFEE7134B1B680C
:1056000083421DD000F02EFD6C6900F04DFD104B63
:105610001B689C4216D00F4B1B689C4212D00E4B4D
:105620009C4205D1AB6A002B14BF0220032038BD79
:105630000A4B9C4208D0002C0CBF04200120F6E746
:105640000020F4E70220F2E70420F0E754040020F1
:10565000580400205C0400202009002034090020A8
:1056600010B5002488B007AA06A905A8CDE905440D
:10567000FFF742FA059B079A0293069B1549CDE96D
:10568000004315482346FFF7F1FEA8B100F012FBD6
:10569000012813D14FF0500383F31188BFF36F8FAC
:1056A000BFF34F8F4FF0FF320C4B1A600C4B18605A
:1056B0000C4B1C6000F05EFD08B010BD0130FBD14A
:1056C0004FF0500383F31188BFF36F8FBFF34F8FF9
:1056D000FEE700BF00680008E9520008000900204A
:1056E0001C09002048090020024A13680133136096
:1056F000704700BFCC080020014B1868704700BFFE
:105700004809002008B500F08FFD014B186808BD5E
:10571000480900202DE9F84F3B4B1B68002B6BD14B
:105720003A4B1C6801341C60BCB9394B1A681268CA
:1057300042B14FF0500383F31188BFF36F8FBFF373
:105740004F8FFEE7334A1968106818601160324ABB
:10575000136801331360FFF7F9FD304D4FF0000B74
:105760002B682F4FA34211D93A682E4BD16A1422CD
:105770004A439A58022A28BF4FF0010B2A4A12685E
:10578000002A0CBF58460120BDE8F88FDFF8809052
:10579000DFF89CA0D9F8002012681AB94FF0FF3248
:1057A0002A60E1E7D9F80020D268D66871688C4297
:1057B00001D22960D8E706F104084046FFF7E5F971
:1057C000B16A19B106F11800FFF7DFF91422F06A87
:1057D000DAF80010134B884288BFCAF8000041462F
:1057E00002FB0030FFF7AEF93868F16AC26A9142F5
:1057F00028BF4FF0010BCDE70C4A4FF0000B1368A8
:1058000001331360BAE700BFCC080020480900202C
:10581000580400205C040020040900200009002036
:1058200054040020600400204C090020C808002017
:10583000D40800202DE9F0412F4C236843B94FF0E4
:10584000500383F31188BFF36F8FBFF34F8FFEE7D1
:1058500000F008FC2368013B236024682CB100247D
:1058600000F022FC2046BDE8F081244B1B68002B91
:10587000F5D0234D234EDFF8A0801DE0EB68DC68F7
:10588000271D04F11800FFF780F93846FFF77DF96E
:105890001420E36A326800FB03809342394688BFD4
:1058A0003360FFF74FF9184BE26A1B68DB6A9A42D4
:1058B00002D30122154B1A602B68002BDED10CB1EC
:1058C000FFF744FD124D2C6844B101270F4EFFF73E
:1058D00021FF00B13760013CF9D12C600B4B1B68F4
:1058E000002BBCD04FF080520A4B1A60BFF34F8F91
:1058F000BFF36F8F0124B3E7CC080020C00800205D
:1059000008090020D4080020540400204C0900207D
:10591000C808002004ED00E06004002008B540B98C
:105920004FF080520D4B1A60BFF34F8FBFF36F8F54
:1059300008BD0B4B196841B14FF0500383F3118838
:10594000BFF36F8FBFF34F8FFEE7FFF7CDFEFFF77B
:1059500053FDFFF76FFF0028E2D0E9E704ED00E018
:10596000CC080020184BF0B51A68184B12B1012270
:105970001A60F0BD1A60164A14271646154D2B689A
:1059800007FB03F15458501894B144680831646817
:105990000A44944208BF6268446008BF426014220F
:1059A00002FB03625268D1680B4A11602B60E0E78A
:1059B00043B94FF0500383F31188BFF36F8FBFF3E8
:1059C0004F8FFEE7013BDBE7CC0800204C090020AD
:1059D00060040020D40800205404002010B50C46B8
:1059E00040B94FF0500383F31188BFF36F8FBFF3BB
:1059F0004F8FFEE7054B19681831FFF7AFF82046C7
:105A0000BDE810400121FFF7F7BC00BF540400209F
:105A100038B50D46144640B94FF0500383F3118852
:105A2000BFF36F8FBFF34F8FFEE7084B1968183134
:105A3000FFF788F8002C214608BF2846BDE838400B
:105A400018BF4FF0FF30FFF7D7BC00BF5404002051
:105A500038B5C368DC6844B94FF0500383F311884C
:105A6000BFF36F8FBFF34F8FFEE704F11805284691
:105A7000FFF78BF8104B1B68DBB9251D2846FFF795
:105A800084F80E4A14201168E36A8B42294688BFC5
:105A900013600B4A00FB0320FFF754F8094BE26A3E
:105AA0001B68DB6A9A4285BF0120074B0020186003
:105AB00038BD29460548EFE7CC080020D40800206F
:105AC00060040020540400204C0900200809002034
:105AD000034B1B680360034B1B684360704700BFA8
